{
  "fileName": "Counter.sol",
  "contractName": "Counter",
  "source": "// SPDX-License-Identifier: MIT\n\npragma solidity ^0.6.0;\n\ncontract Counter {\n    uint256 public value;\n\n    function increase() public {\n        value += 1;\n    }\n}\n",
  "sourcePath": "contracts/Counter.sol",
  "abi": [
    {
      "inputs": [],
      "name": "increase",
      "outputs": [],
      "stateMutability": "nonpayable",
      "type": "function"
    },
    {
      "inputs": [],
      "name": "value",
      "outputs": [
        {
          "internalType": "uint256",
          "name": "",
          "type": "uint256"
        }
      ],
      "stateMutability": "view",
      "type": "function"
    }
  ],
  "bytecode": "0x6080604052348015600f57600080fd5b5060a98061001e6000396000f3fe6080604052348015600f57600080fd5b506004361060325760003560e01c80633fa4f245146037578063e8927fbc146053575b600080fd5b603d605b565b6040518082815260200191505060405180910390f35b60596061565b005b60005481565b6001600080828254019250508190555056fea2646970667358221220cd367efb81cfcf2a1a9f8f6385e181b1ce58a985241d2e4c10c347bf3fe0e86164736f6c634300060a0033",
  "compiler": {
    "name": "solc",
    "version": "0.6.10+commit.00c0fcaf.Emscripten.clang",
    "optimizer": {
      "enabled": false,
      "runs": 200
    },
    "evmVersion": "petersburg"
  }
}